:060000000A128A11122809
:10000800FE00030E83120313D8000408D9000A085F
:10001800DA007F08DB000A168A15912F0A128A1166
:10002800152883135C3084006A300A168A15D42593
:100038000A128A1183160313D801D901DA01DB01E8
:10004800DC01831790308400E0300A168A15D42525
:100058000A128A1183010A168A15502E3F30831618
:100068000313CC008030CB000030CA000030C90038
:10007800B001B1014808F3004708F2004608F10052
:100088004508F0000030F7000030F6000030F500B9
:100098000030F4000A168A1160200A128A11031827
:1000A80056285728682A6828831603133708CC006F
:1000B8003608CB003508CA003408C9000130B0073B
:1000C8000318B10A0030B107413083120313A300AB
:1000D8002030A2000030A1000030A00083160313D6
:1000E8004C0883120313A700831603134B088312CB
:1000F8000313A600831603134A0883120313A500EB
:1001080083160313490883120313A4000A128A15DD
:10011800BB240A128A1183120313230883160313BC
:10012800B70083120313220883160313B600831241
:100138000313210883160313B50083120313200841
:1001480083160313B400450883120313C6008316ED
:100158000313460883120313C700831603134708C3
:1001680083120313C800831603134808831203136A
:10017800C90083160313340883120313C6028316B7
:1001880003133508031C350FCA28CD28831203131F
:10019800C702831603133608031C360FD428D72842
:1001A80083120313C802831603133708031C370F7F
:1001B800DE28E12883120313C9028316031383126E
:1001C80003134908F3004808F2004708F1004608FD
:1001D800F0000A168A114B200A128A11F31B04290F
:1001E8007308031D05297208031D05297108031DDD
:1001F800052902307002031D0129031C0429052961
:10020800582883160313370883120313B80083167C
:100218000313360883120313B70083160313350834
:1002280083120313B60083160313340883120313CF
:10023800B50083160313480883120313BC00831602
:100248000313470883120313BB00831603134608DE
:1002580083120313BA00831603134508831203138A
:10026800B9000A128A113D270A128A11031C3D2976
:100278003E29582883160313450883120313C60022
:1002880083160313460883120313C7008316031348
:10029800470883120313C800831603134808831200
:1002A8000313C90083160313490883120313C602F4
:1002B800831603134A08031C4A0F6329662983120D
:1002C8000313C702831603134B08031C4B0F6D2936
:1002D800702983120313C802831603134C08031CE6
:1002E8004C0F77297A2983120313C9028316031343
:1002F800831203134908F3004808F2004708F10085
:100308004608F0000A168A114B200A128A11F31BBC
:100318009E297308031D9D297208031D9D297108D4
:10032800031D9D2902307002031D9A2903189D2977
:100338009E292F2A831603134C08C8004B08C700B0
:100348004A08C6004908C500682A4130F300203031
:10035800F2000030F1000030F000831603134C085F
:10036800F7004B08F6004A08F5004908F4000A1699
:100378008A1127260A128A11730883160313CC00E0
:100388007208CB007108CA007008C900FF30B007B6
:100398000318B10AFF30B107450883120313C600DA
:1003A80083160313460883120313C7008316031327
:1003B800470883120313C8008316031348088312DF
:1003C8000313C90083160313490883120313C602D3
:1003D800831603134A08031C4A0FF329F6298312CC
:1003E8000313C702831603134B08031C4B0FFD2985
:1003F800002A83120313C802831603134C08031C34
:100408004C0F072A0A2A83120313C90283160313FF
:10041800831203134908F3004808F2004708F10063
:100428004608F0000A168A114B200A128A11F31B9B
:100438002E2A7308031D2D2A7208031D2D2A710800
:10044800031D2D2A02307002031D2A2A03182D2AA3
:100458002E2A2F2A9E298316031348088312031372
:10046800B80083160313470883120313B7008316D3
:100478000313460883120313B600831603134508B3
:1004880083120313B500831603134C088312031356
:10049800BC00831603134B0883120313BB00831697
:1004A80003134A0883120313BA0083160313490877
:1004B80083120313B9000A128A113D270A128A11FE
:1004C800031C672A682AA92983120313450883167F
:1004D8000313A9002908AA0083120313E71B752A2E
:1004E800762A812A670883160313A300831203134D
:1004F800660883160313A200872A0630831603139F
:10050800A2000030A3002308AE002208AD0001308D
:10051800AD070318AE0A0030AE0766302A06031D81
:10052800962A972AB12AB11F9A2A9B2AA52A3F30D0
:10053800CC008030CB000030CA000030C900B001C8
:10054800B101673029060319AA2AAB2AB12A300853
:10055800AD070318AE0A3108AE07B801B90148085B
:10056800BD004708BC004608BB004508BA004C0857
:10057800B7004B08B6004A08B5004908B400AC2BD0
:10058800831603134C08F3004B08F2004A08F100E5
:100598004908F0003D08F7003C08F6003B08F50064
:1005A8003A08F4000A168A1127260A128A117308D3
:1005B80083120313B0007208AF007108AE00700810
:1005C800AD000A168A11F5230A128A118312031341
:1005D800300883160313C100831203132F088316F0
:1005E8000313C000831203132E0883160313BF00DE
:1005F800831203132D0883160313BE004108F3006A
:100608004008F2003F08F1003E08F0000A168A117F
:10061800B5210A128A11710883160313AC007008F9
:10062800AB004C0883120313A700831603134B086F
:1006380083120313A600831603134A0883120313B5
:10064800A50083160313490883120313A400831615
:100658000313410883120313A300831603134008EE
:1006680083120313A200831603133F088312031394
:10067800A100831603133E0883120313A0000A1275
:100688008A15BB240A128A11831203132308B8009F
:100698002208B7002108B6002008B5008316031306
:1006A8003D0883120313BC00831603133C0883120E
:1006B8000313BB00831603133B0883120313BA000A
:1006C800831603133A0883120313B9000A168A150E
:1006D800A6260A128A1183120313380883160313F5
:1006E800BD0083120313370883160313BC0083125B
:1006F8000313360883160313BB008312031335084C
:1007080083160313BA004130F3002030F2000030A2
:10071800F1000030F0004C08F7004B08F6004A08DA
:10072800F5004908F4000A168A1127260A128A11C8
:10073800730883160313CC007208CB007108CA0033
:100748007008C9000130B8070318B90A0030B907A2
:100758003908803A83120313C600831603132E0840
:10076800803A831203134602031DBE2B831603131C
:100778002D083802031CC12BC22BC42A4030831217
:100788000313A300A030A2000030A1000030A00095
:10079800831603134C0883120313A700831603134D
:1007A8004B0883120313A600831603134A08831207
:1007B8000313A50083160313490883120313A40027
:1007C8000A128A15BB240A128A11831203132308FA
:1007D80083160313C100831203132208831603131D
:1007E800C00083120313210883160313BF0083126A
:1007F8000313200883160313BE003D088312031356
:10080800B800831603133C0883120313B70083163A
:1008180003133B0883120313B600831603133A0825
:1008280083120313B50083160313410883120313BD
:10083800BC0083160313400883120313BB008316FE
:1008480003133F0883120313BA00831603133E08E9
:1008580083120313B9000A128A113D270A128A115A
:100868000318372C382C432C003083160313C1008F
:100878000030C0000030BF000030BE006C2C831672
:1008880003133D08F3003C08F2003B08F1003A0866
:10089800F0004108F7004008F6003F08F5003E0860
:1008A800F4000A168A1160200A128A11031C5D2CB2
:1008B8005E2C6C2C831603132B18632C642C6C2C65
:1008C8000030C1000030C0000030BF000030BE0062
:1008D800831603134108F3004008F2003F08F100B3
:1008E8003E08F0004808F7004708F6004608F500FB
:1008F8004508F4000A128A1555220A128A1173084B
:1009080083160313BD007208BC007108BB00700891
:10091800BA003D0883120313B800831603133C087A
:1009280083120313B700831603133B0883120313C0
:10093800B600831603133A0883120313B500413037
:10094800A3002030A2000030A1000030A0008316D0
:100958000313370883120313A700831603133608FB
:1009680083120313A6008316031335088312031397
:10097800A50083160313340883120313A4000A1274
:100988008A15BB240A128A11831203132308BC0098
:100998002208BB002108BA002008B9000A128A11EF
:1009A8003D270A128A11031CDA2CDB2C2E2D01306C
:1009B80083160313B0070318B10A0030B10741309A
:1009C80083120313A3002030A2000030A1000030DE
:1009D800A00083160313370883120313A700831696
:1009E8000313360883120313A6008316031335086E
:1009F80083120313A5008316031334088312031309
:100A0800A4000A128A15BB240A128A11831203133E
:100A1800230883160313B7008312031322088316CF
:100A28000313B60083120313210883160313B500BA
:100A380083120313200883160313B40066302A06B2
:100A4800031D272D282D2E2D0130AD070318AE0AC2
:100A58000030AE07831603133708CC003608CB00E6
:100A68003508CA003408C9003108A1003008A000C0
:100A7800A801A401A501B801B901A22E8316031388
:100A88004C08F3004B08F2004A08F1004908F0004E
:100A98003D08F7003C08F6003B08F5003A08F4006A
:100AA8000A168A1127260A128A1173088312031359
:100AB800B0007208AF007108AE007008AD000A16E9
:100AC8008A11F5230A128A11831203133008831638
:100AD8000313C100831203132F0883160313C000E6
:100AE800831203132E0883160313BF008312031304
:100AF8002D0883160313BE004108F3004008F200D6
:100B08003F08F1003E08F0000A168A11B5210A12C2
:100B18008A117108803AFF0080307F02031D962DEC
:100B28000A3070020318992D9A2DB02D83160313DD
:100B38004108F3004008F2003F08F1003E08F000C9
:100B48000A168A11B5210A128A117108831603132D
:100B5800AC007008AB00B62D093083160313AB0048
:100B68000030AC002808031DBA2DBB2DEC2DA11FA9
:100B7800BE2DBF2DEC2D4308903E84002E308317E8
:100B880080000130C3070318C40A0030C407FF30CF
:100B9800B2070318B30AFF30B307A801A80AEC2D5F
:100BA8004308903E84003030831780000130C3072B
:100BB8000318C40A0030C407FF30B2070318B30A89
:100BC800FF30B307FF30A4070318A50AFF30A507B5
:100BD80024082504031DF12DF22DD42D4308903E41
:100BE80084002B08303E831780000130C3070318A8
:100BF800C40A0030C407FF30B2070318B30AFF3035
:100C0800B3074C0883120313A700831603134B087A
:100C180083120313A600831603134A0883120313CF
:100C2800A50083160313490883120313A40083162F
:100C38000313410883120313A30083160313400808
:100C480083120313A200831603133F0883120313AE
:100C5800A100831603133E0883120313A0000A128F
:100C68008A15BB240A128A11831203132308B800B9
:100C78002208B7002108B6002008B5008316031320
:100C88003D0883120313BC00831603133C08831228
:100C98000313BB00831603133B0883120313BA0024
:100CA800831603133A0883120313B9000A168A1528
:100CB800A6260A128A11831203133808831603130F
:100CC800BD0083120313370883160313BC00831275
:100CD8000313360883160313BB0083120313350866
:100CE80083160313BA004130F3002030F2000030BD
:100CF800F1000030F0004C08F7004B08F6004A08F5
:100D0800F5004908F4000A168A1127260A128A11E2
:100D1800730883160313CC007208CB007108CA004D
:100D28007008C900FF30A0070318A10AFF30A10707
:100D38000130B8070318B90A0030B9073908803AF2
:100D480083120313C600831603132E08803A8312F6
:100D580003134602031DB42E831603132D0838020D
:100D68000318B72EB82EC72E831603134408803AEB
:100D7800FF0080307F02031DC32E4B304302031C4B
:100D8800C62EC72E422D4F3083160313B8000030ED
:100D9800B9003808903E8400831780019030F00035
:100DA8004408F2004308F100903083120313C60090
:100DB80083160313430883120313C602831603130F
:100DC80038088312031346070A168A15EF260A12F3
:100DD8008A118316031343083802C3004408031C0E
:100DE800440A3902C4004208031DFB2EFD2E0130BF
:100DF800FE2E003083120313C600C701460883166F
:100E08000313B80083120313470883160313B900AA
:100E180042080319102F112F1D2FFF30C307031885
:100E2800C40AFF30C4074308903E84004208831771
:100E380080003808B2023908031CB303B302430820
:100E4800903E83120313A4008316031333088312FE
:100E58000313A60083160313320883120313A50095
:100E6800831603132F080A168A15C6270A128A1131
:100E780008000030831203133505BD000030360525
:100E8800BE0080303705BF007F303805C0004008FD
:100E98003F043E043D04031D522F532F5B2F0030A7
:100EA800B8000030B7000030B6000030B5000030A0
:100EB8003905BD0000303A05BE0080303B05BF0053
:100EC8007F303C05C00040083F043E043D04031D3C
:100ED8006E2F6F2F772F0030BC000030BB00003022
:100EE800BA000030B900B81F7A2F7B2F9F2F00302F
:100EF800BD000030BE000030BF008030C0003508A3
:100F0800BD023608031C360F8A2F8B2FBE02370806
:100F1800031C370F902F912FBF023808031C380F7E
:100F2800962F972FC0024008B8003F08B7003E0828
:100F3800B6003D08B500BC1FA22FA32FC72F003055
:100F4800BD000030BE000030BF008030C00039084E
:100F5800BD023A08031C3A0FB22FB32FBE023B085A
:100F6800031C3B0FB82FB92FBF023C08031C3C0FD2
:100F7800BE2FBF2FC0024008BC003F08BB003E0880
:100F8800BA003D08B9008030B8068030BC063C087D
:100F98003802031DD92F3B083702031DD92F3A0801
:100FA8003602031DD92F390835020318DC2FDD2F2F
:100FB800DF2F0310E02F03140800F3007308F2007A
:100FC8000130F007FF30700784000A168A110A20E2
:100FD8000A128A11F100720884000130F2077108C0
:100FE800831780000008031DFA2FFB2FE42F080049
:10100400F601F11F062807280E28F009F109F00A55
:101014000319F10AF601F60AF31F112812281B28F6
:10102400F209F309F20A0319F30A0130F40074080F
:10103400F606F701F8017008710403192228232821
:101044005A28F501F50A312801300310F00DF10D8D
:10105400FF3E031D27280130F4007408F507F11F33
:1010640034283528262801300310F70DF80DFF3EEB
:10107400031D362871087302031D4228700872028A
:10108400031C452846284D287008F2027108031CE9
:10109400F303F302771401300310F10CF00CFF3E5C
:1010A400031D4E280130F502031D59285A283528FE
:1010B400760803195E285F286428F709F809F70AF7
:1010C4000319F80A7808F1007708F0000800831281
:1010D4000313D200831603134D08840083130008FE
:1010E40084000A168A110A200A128A15253A031D59
:1010F4007C287D283B2A013083120313CA008316FF
:1011040003134D088400831203134A088007E40183
:10111400E501031000300318013083160313DC00CB
:10112400FF3083120313E600FF30E7008316031336
:101134004D088400000884000A168A110A200A1245
:101144008A152E3A031DA728A828C4280130831223
:101154000313CA00831603134D0884008312031378
:101164004A088007831603134E08F6004D080A1632
:101174008A1104210A128A15770883120313E700DF
:101184007608E600831603134D08840083130008D1
:1011940083120313D300530884000A168A110A2009
:1011A4000A128A15643A0319D828D928E52853085D
:1011B40084000A168A110A200A128A15693A031D44
:1011C400E428E5280A29831603134E08840000083E
:1011D40083120313CA00023080074A0884000008FF
:1011E400CD00840A0008CE00831603134D08840042
:1011F400831203135308013E80004E08AB004D08D0
:10120400AA0052080A168A112C230A128A15542A93
:10121400CC01831603134D088400000884000A16C9
:101224008A110A200A128A15733A031D1A291B29E6
:101234002A29013083120313CA00831603134D08AD
:101244008400831203134A088007CC01CC0A632963
:101254004D088400000884000A168A110A200A1224
:101264008A156C3A031D3729382963294D088400EF
:101274000008013E84000A168A110A200A128A15FF
:101284006C3A031D4629472963294D088400000848
:10129400023E84000A168A110A200A128A15733A39
:1012A400031D552956296329033083120313CA00E9
:1012B400831603134D088400831203134A0880071E
:1012C400272983124C080319682969297E29831662
:1012D40003134E088400000883120313CA0001306C
:1012E40080074A0884000008F90052080A168A1187
:1012F400AA220A128A15542A831603134D0884005D
:10130400000883120313D300530884000A168A11B9
:101314000A200A128A15D10099290130CA004A0804
:10132400D307AC296C30D100AC29D101AC295108C8
:10133400CA00CB014B08003A0319A12997294A088E
:101344004C3A03198F292A3A031994290A3A0319A2
:101354008F299729530884000A168A110A200A1231
:101364008A15663A031DB729B8292D2AE929831657
:1013740003134E088400000883120313CA000430C8
:1013840080074A0884000008CD00840A0008CE00C3
:10139400840A0008CF00840A0008D000F9298316C3
:1013A40003134E088400000883120313CA00043098
:1013B40080074A0884000008CD00840A0008CE0093
:1013C400840A0008CF00840A0008D000F9295108D3
:1013D400CA00CB014B08003A0319F129F9294A083C
:1013E4004C3A0319D129203A0319B929F92983164A
:1013F40003134D088400831203135308013E800035
:101404001A2A5008C4004F08C3004E08C2004D08F1
:10141400C100530884000A168A110A200A128A1588
:10142400C50052080A168A11F6240A128A15542A8B
:10143400530884000A168A110A200A128A15CA005F
:10144400CB014B08003A0319282A2D2A4A08663A88
:101454000319032A2D2A013083120313CA008316A9
:1014640003134D088400831203134A08831380076F
:10147400542A4D088400000884000A168A110A20A0
:101484000A128A1583120313CA00CB014A08F10019
:101494004B08F2005208F3000A168A11AE200A1211
:1014A4008A152D2A080073088039F80073088312FE
:1014B4000313A0002007FA00F21F612A622A632A9C
:1014C4007A147A080319672A682A782A7A0A031D83
:1014D4006C2A6D2A752A0030F3000030F2000030C7
:1014E400F1000030F000F217F301802A0030F3001D
:1014F4000030F2000030F1000030F000770880394D
:10150400F900790878060319882A892A8A2A78171B
:101514007708A0002007F900F61F912A922A932A3F
:10152400791479080319972A982AA82A790A031D95
:101534009C2A9D2AA52A0030F7000030F6000030CE
:10154400F5000030F400F617F701B02A0030F70078
:101554000030F6000030F5000030F4007A0879021B
:101564000318B52AB62ADC2A781FB92ABA2ABE2A51
:101574008030A0002008F8067A08FB007908FA00F9
:101584007B08F9007008FB007408F0007B08F40085
:101594007108FB007508F1007B08F5007208FB0078
:1015A4007608F2007B08F6007308FB007708F30066
:1015B4007B08F700FB017908A000A1012108A30022
:1015C4007A082002A200031CA3032308803AFF0028
:1015D40080307F02031DF02A1A302202031CF32AF2
:1015E400F42A2D2B7308720471047004031DFB2A62
:1015F400FD2A0130FE2A0030FB000030F3000030E9
:10160400F2000030F1000030F0007908FA00332BCA
:101614007B1C0D2B0E2B172B7B0883120313A000AE
:101624000310200C0138FB00192B0310FB0C701C59
:101634001C2B1D2B1E2BFB17013083120313A00040
:10164400730DF30CF20CF10CF00CA00B222B0130F7
:10165400A0002008FA0779087A02031C322B332BE6
:101664000A2B781B362B372B842B7A08031D3B2B34
:101674003C2B452B0030F3000030F2000030F10029
:101684000030F000BA2C7408F00775080311031831
:10169400013E03194E2BF107760803110318013E8E
:1016A4000319552BF207770803110318013E031998
:1016B4005C2BF307731C5F2B602B3C2C7B1C632B74
:1016C400642B6D2B7B0883120313A0000310200CE2
:1016D4000138FB006F2B0310FB0C701C722B732B57
:1016E400742BFB17013083120313A000730DF30C4A
:1016F400F20CF10CF00CA00B782B0130A0002008A8
:10170400FA073C2C7308803AFF007708803A7F027E
:10171400031D962B76087202031D962B7508710221
:10172400031D962B740870020318992B9A2BF42B23
:10173400FF3083120313A000FF30A100FF30A2008A
:10174400FF30A3007408A4007508A5007608A6005D
:101754007708A7007008A4027108031C710FB32B4B
:10176400B42BA5027208031C720FB92BBA2BA60264
:101774007308031C730FBF2BC02BA7022408A007F8
:1017840025080318250FC72BC82BA1072608031803
:10179400260FCD2BCE2BA20727080318270AA30751
:1017A4002308F3002208F2002108F1002008F000C9
:1017B4008030A0002008F806FB09FB0A7B08031D03
:1017C400E42BE52B022C0130F00700300318013024
:1017D400F107003003180130F2070030031801301C
:1017E400F307022C7408F0027508031C750FF1024C
:1017F4007608031C760FF2027708031C770FF302B6
:101804007308720471047004031D092C0A2C382C0B
:101814007B08031D0E2C0F2C382C0030F3000030F5
:10182400F2000030F1000030F000BA2C01308312D5
:101834000313A0000310F00DF10DF20DF30DA00B36
:101844001C2CFB1F262C272C282C70147B1C2B2CC7
:101854002C2C2F2C0314FB0D312C0310FB0D7A08B8
:101864000319352C362C382C0130FA02F21F3B2C8C
:101874003C2C182CF901FB1F402C412C4F2C7B08CD
:101884007F390319462C472C4A2CF901F90A4F2CAD
:10189400701C4D2C4E2C4F2C472C79080319532CBB
:1018A400542C8A2C0130F007003003180130F10762
:1018B400003003180130F207003003180130F30739
:1018C400731C652C662C8A2C700883120313A000E9
:1018D4007108A1007208A2007308A3000130A400DB
:1018E400230DA30CA20CA10CA00CA40B722C230896
:1018F400F3002208F2002108F1002008F0007A0A1F
:101904000319852C862C8A2C0130A0002008FA07A4
:101914007A0A03198E2C8F2C942C7A08031D932C8D
:10192400942CA22C0030F3000030F2000030F100BF
:101934000030F0007A08031DA02CA12CA22CF80181
:101944007A1CA52CA62CA82CF217AE2C7F3083125F
:101954000313A0002008F2057A0883120313A000E1
:101964000310200CF300F81FB82CB92CBA2CF31771
:1019740008008312031323088039A8002308F90000
:101984007907AE00A21FC72CC82CC92C2E142E0810
:101994000319CD2CCE2CDD2C2E0A031DD22CD32CD6
:1019A400DB2C0030A3000030A2000030A100003086
:1019B400A000A217E52C0030A3000030A2000030E4
:1019C400A1000030A00027088039F9007908A80692
:1019D4002708F9007907AD00A61FF12CF22CF32C8F
:1019E4002D142D080319F72CF82C072D2D0A031D8F
:1019F400FC2CFD2C052D0030A7000030A600003083
:101A0400A5000030A400A6170F2D0030A700003059
:101A1400A6000030A5000030A4002D080319132DE2
:101A2400142D192D2E08031D182D192D222D0030CB
:101A3400A3000030A2000030A1000030A000FF2F5E
:101A44002008F00026080A168A1515270A128A1596
:101A5400710883120313B4007008B3003308F9004B
:101A6400FA01FB01FC017C08AC007B08AB007A089E
:101A7400AA007908A9003408F900FA01FB01FC0165
:101A84007C08B2007B08B1007A08B0007908AF0086
:101A94002108F00025080A168A1515270A128A1546
:101AA400710883120313B4007008B3003308F900FB
:101AB400FA01FB01FC017908A9077A08031103184C
:101AC400013E0319662DAA077B0803110318013E82
:101AD40003196D2DAB077C0803110318013E03198C
:101AE400742DAC073408F900FA01FB01FC017908F4
:101AF400AF077A0803110318013E0319822DB007BA
:101B04007B0803110318013E0319892DB1077C08D2
:101B140003110318013E0319902DB2072208F000A7
:101B240024080A168A1515270A128A1571088312C1
:101B34000313B4007008B3003308F900FA01FB0181
:101B4400FC017908A9077A0803110318013E031957
:101B5400AC2DAA077B0803110318013E0319B32D0A
:101B6400AB077C0803110318013E0319BA2DAC0717
:101B74003408F900FA01FB01FC017908AF077A087F
:101B840003110318013E0319C82DB0077B08031184
:101B94000318013E0319CF2DB1077C080311031864
:101BA400013E0319D62DB2070830F9000310A90D20
:101BB400AA0DAB0DAC0DF90BD82D2108F0002408AB
:101BC4000A168A1515270A128A1571088312031337
:101BD400B4007008B3003308F9003408FA00FB01BC
:101BE400FC017908A9077A0803110318013E0319B7
:101BF400FC2DAA077B0803110318013E0319032EC9
:101C0400AB077C0803110318013E03190A2EAC0725
:101C14002008F00025080A168A1515270A128A15C5
:101C2400710883120313B4007008B3003308F90079
:101C34003408FA00FB01FC017908A9077A080311AA
:101C44000318013E0319272EAA077B080311031862
:101C5400013E03192E2EAB077C0803110318013E25
:101C64000319352EAC070830F9000310A90DAA0D8D
:101C7400AB0DAC0DF90B372E2008F00024080A1622
:101C84008A1515270A128A15710883120313B400E2
:101C94007008B3003308F9003408FA00FB01FC01B2
:101CA4007908A9077A0803110318013E03195B2E6A
:101CB400AA077B0803110318013E0319622EAB0720
:101CC4007C0803110318013E0319692EAC0721088F
:101CD400F00026080A168A1515270A128A157108B3
:101CE40083120313B4007008B3003308F9003408F6
:101CF400FA00FB01FC017908AF077A080311031805
:101D0400013E0319862EB0077B0803110318013E18
:101D140003198D2EB1077C0803110318013E031922
:101D2400942EB2072208F00025080A168A151527F2
:101D34000A128A15710883120313B4007008B300E1
:101D44003308F9003408FA00FB01FC017908AF07F5
:101D54007A0803110318013E0319B12EB0077B085A
:101D640003110318013E0319B82EB1077C080311AF
:101D74000318013E0319BF2EB2072208F0002608FB
:101D84000A168A1515270A128A1571088312031375
:101D9400B4007008B3003308F9003408FA00FB01FA
:101DA400FC0108300310F90DFA0DFB0DFC0DFF3E8C
:101DB400031DD42E7908AF077A0803110318013ED6
:101DC4000319E52EB0077B0803110318013E03191C
:101DD400EC2EB1077C0803110318013E0319F32EFE
:101DE400B2072908F9002A08FA002B08FB002C087E
:101DF400FC0018300310FC0CFB0CFA0CF90CFF3E31
:101E0400031DFC2E7908AF077A0803110318013E5D
:101E140003190D2FB0077B0803110318013E0319A2
:101E2400142FB1077C0803110318013E03191B2F5B
:101E3400B2070830F9000310A90DAA0DAB0DAC0DC3
:101E4400F90B1D2F2E082D07F900FA01FA0D790858
:101E5400823EB3007A080318013EFF3EB4004F2FC0
:101E64000130F9000310AF0DB00DB10DB20DF90B37
:101E7400342FAC1F3E2F3F2F402F2F140130F90079
:101E84000310A90DAA0DAB0DAC0DF90B422FFF30B9
:101E9400B3070318B40AFF30B407B11F522F532FEE
:101EA400322FAD01AC1F572F582F742FFF30290547
:101EB400F900FF302A05FA00FF302B05FB007F30C4
:101EC4002C05FC007C087B047A04790403196B2F2D
:101ED4006C2F6F2FAD01AD0A742F2F1C722F732F2F
:101EE400742F6C2F2D080319782F792FAA2F013006
:101EF400AF07003003180130B00700300318013079
:101F0400B107003003180130B207321C8A2F8B2F1F
:101F1400AA2F2F08F9003008FA003108FB00320814
:101F2400FC000130FD007C0DFC0CFB0CFA0CF90CE0
:101F3400FD0B952F7C08B2007B08B1007A08B00035
:101F44007908AF000130B3070318B40A0030B407AE
:101F54003408803AFF0080307F02031DB32FFF3026
:101F64003302031CB62FB72FC22F7F308312031303
:101F7400B2008030B1000030B0000030AF00F32F69
:101F8400831203133408803AFF0080307F02031D5C
:101F9400CD2F013033020318D02FD12FDD2F003085
:101FA40083120313B2000030B1000030B0000030DF
:101FB400AF00A801F32F831203133308AE00FF30E0
:101FC400AF05FF30B0057F30B1050030B2052E1CDF
:101FD400EC2FED2FEE2FB1172E08F9000310790C1A
:101FE400B2002808F9007908B2043208A3003108C5
:101FF400A2003008A1002F08A0000800FF1B0A2837
:1020040083137F1883170008840A0319FF0A080042
:1020140010308A000408840A820700346E346F3456
:102024006934733465342034763461346C347534F3
:1020340065343A3420345B34253469345D342034D7
:102044000D340A3400342534733420347634613446
:102054006C34753465343A3420345B3425342E348E
:10206400323466345D3420340D340A340034283478
:102074006E3475346C346C342934003469346E3401
:0C208400663400346E3461346E34003475
:10209600F31B4E284F2850285F287009F00071095D
:1020A600F1007209F2007309F300F00A0319F10A4C
:1020B6000319F20A0319F30A080000307005F80044
:1020C60000307105F90080307205FA007F30730523
:1020D600FB007B087A0479047804031D73287428AE
:1020E6007C280030F3000030F2000030F1000030B0
:1020F600F00000307405F80000307505F9008030F6
:102106007605FA007F307705FB007B087A047904B0
:102116007804031D8F28902898280030F700003097
:10212600F6000030F5000030F40077087306031D52
:10213600A62876087206031DA62875087106031DD3
:10214600A628740870060319A928AA28AC28031023
:10215600AD280314080073080319B228B328B82859
:102166007308031DB728B828BF2871080A168A15F0
:10217600DC250A168A1103297308093E8400831395
:102186000008F400840A0008F500740875040319B1
:10219600CD28CE28EC287308093E84000008F400F8
:1021A600840A0008F5007308023E84000008F60061
:1021B600840A0008F7007708803AF8007508803A24
:1021C6007802031DE828740876020318EB28EC2829
:1021D60003297308023E840083130008F400730881
:1021E600840000087407F5007508840071088000F3
:1021F6007308023E840001308007840A0318800AAF
:102206000800FC00FA01FB017C0884008313000827
:1022160084000A168A110A200A168A112A3A031D10
:102226001529162946290130F8007C08840078080B
:102236008007760884000008F800023080077808D6
:1022460084000008FA00840A0008FB0057297B086E
:10225600F1007A08F0000A30F2000030F3000A16A6
:102266008A15CA260A168A1179087007FA000030FC
:10227600031801307107FB000130F8007C08840068
:102286007808831380077C088400000884000A16F7
:102296008A110A200A168A11D03EF9000A307902FC
:1022A600031C562957292A297B08F7007A08F600C5
:1022B6000800F601F31F602961296829F209F3096C
:1022C600F20A0319F30AF601F60AF11F6B296C29C3
:1022D6007129F009F109F00A0319F10A700871046D
:1022E600031976297729A629F501F50A85290130EA
:1022F6000310F00DF10DFF3E031D7B290130F400A4
:102306007408F507F11F882989297A29710873024B
:10231600031D8F2970087202031C9229932999299B
:102326007008F2027108031CF303F3020130031074
:10233600F10CF00CFF3E031D9A290130F502031D36
:10234600A529A629892976080319AA29AB29B0291E
:10235600F209F309F20A0319F30A7308F100720885
:10236600F00008000310720D730DF9007908031DC3
:10237600BD29BE29C7290030F3000030F200003025
:10238600F1000030F0002A2A7008F4007108F50008
:102396007208F6007308F7001F300310F70CF60CEE
:1023A600F50CF40CFF3E031DD0297408F800F21753
:1023B600FF30F005FF30F105FF30F2050030F30580
:1023C6009630F902F91FE829E929032A7908803AA3
:1023D600973E0318EF29F029F129BE290130031091
:1023E600F30CF20CF10CF00CFF3E031DF229013048
:1023F600F4007408F907031D012A022AF1291A2A92
:1024060020307902031C082A092A152ABE29013020
:10241600F4000310F00DF10DF20DF30DF40B0C2A80
:102426000130F9027908031D192A1A2A0A2A78089E
:1024360003191E2A1F2A2A2AF009F109F209F309AB
:10244600F00A0319F10A0319F20A0319F30A08003C
:10245600831203136308A5006208A4006108A300A1
:102466006008A2007308A5007208A4007108A30002
:102476007008A2002208F4002308F5002408F600DC
:102486002508F70017300310F70CF60CF50CF40CC2
:10249600FF3E031D462AFF307405A0000030750577
:1024A600A10020082104031D592A5A2A7D2A220840
:1024B600F4002308F5002408F6002508F70001308B
:1024C6000310F40DF50DF60DF70DFF3E031D632AFF
:1024D6007708760475047404031D722A732A782A11
:1024E6000230F0000030F100A92A0330F00000307D
:1024F600F100A92A200A2104031D822A832AA52A7B
:102506002208F4002308F5002408F6002508F70041
:1025160009300310F40DF50DF60DF70DFF3E031D02
:102526008C2A770876047504740403199B2A9D2A5D
:1025360001309E2A0030F800F9017808F000790889
:10254600F100A92A0430F0000030F10008008312DF
:102556000313A2007908A3000030A4002308240472
:10256600031DB62AB72ABB2A2A30A3008030A4004E
:10257600A501A601C42A0130A5070318A60A003042
:10258600A60725082307FB002408FA000318FA0A01
:10259600A51FCE2AFA037A08FC007C0883120313CF
:1025A600FF007B0884000A168A1100200A168A1189
:1025B600003A031DDF2AE02ABE2AE71BE32AE42AA3
:1025C600F82A6708803AFA002608803A7A02031D3C
:1025D600EE2A250866020318F12AF22AF82A83123F
:1025E60003136708A6006608A500831203132608CE
:1025F600A1002508A0001D2B2408FF002308840045
:102606000A168A1100200A168A11FA00FB017A08B6
:10261600F1007B08F2002208F3000A168A11AE20A8
:102626000A168A11013083120313A3070318A40A9A
:102636000030A407FF30A0070318A10AFF30A10746
:10264600200A031D2A2B210A031D2A2B2B2BFF2AC6
:10265600080083120313B200AB1B322B342B01305C
:10266600352B0030B300E71F392B3A2B3F2B0130B7
:10267600B0000030B100432B6708B1006608B00017
:102686006508AF006408AE00330803194B2B4C2BCA
:10269600622BFF30AE070318AF0AFF30AF073308CF
:1026A600031D562B572B5C2B2B30AC000030AD0096
:1026B600602B2D30AC000030AD002C08B3004F303D
:1026C600B4000030B50083160317DF01B02BFF30CE
:1026D60083120313B4070318B50AFF30B50734088D
:1026E600903E84000A30F0000030F1002B08F30021
:1026F6002A08F2000A168A115C210A168A11710844
:10270600F8007008F7000A168A152D260A168A118F
:102716007708303E83178000FF3083120313B0071B
:102726000318B10AFF30B107FF30AE070318AF0A2E
:10273600FF30AF070A30F0000030F1002B08F3003D
:102746002A08F2000A128A1502200A168A1171084E
:1027560083120313AB007008AA0083120313350813
:10276600803AFF0080307F02031DBB2B013034020C
:10277600031CBE2BBF2BD42B831203132A082B0456
:10278600031DC62BC72B6A2B3108803AFF00803009
:102796007F02031DD02B013030020318D32BD42B1C
:1027A6006A2B8312031333080319DA2BDB2BE72B6F
:1027B600FF30B4070318B50AFF30B5073408903E5A
:1027C60084003308831780003408903EA4002F0845
:1027D600A6002E08A50032080A168A15C6270A166C
:1027E6008A110800831203135F08C0005E08BF0049
:1027F6005D08BE005C08BD003008C0002F08BF00A1
:102806002E08BE002D08BD003D08B1003E08B200EE
:102816003F08B3004008B40017300310B40CB30CE3
:10282600B20CB10CFF3E031D102CFF303105B50074
:1028360000303205B6003508813EBB003608031865
:10284600013EFF3EBC003C08803AFF0080307F021C
:10285600031D2F2C17303B02031C322C332C342C37
:10286600F52C83120313BC1B392C3A2CAA2C3B0AD9
:10287600B100FF30B200FF30B3007F30B40000304B
:10288600B5004A2C350DB50CB40CB30CB20CB10B1B
:10289600452C3508BA003408B9003308B8003208A8
:1028A600B70037083D05B10038083E05B2003908C3
:1028B6003F05B3003A084005B40034083304320437
:1028C6003104031D672C682C692C332C3D08B1009C
:1028D6003E08B2003F08B3004008B4001F300310A2
:1028E600B40CB30CB20CB10CFF3E031D722C3408B1
:1028F6003304320431040319812C822C992C3708B5
:10290600BD07380803110318013E03198B2CBE07B7
:10291600390803110318013E0319922CBF073A0820
:1029260003110318013E0319992CC0073709B1009A
:102936003809B2003909B3003A09B4003108BD05B7
:102946003208BE053308BF053408C005ED2C3D0826
:10295600B1003E08B2003F08B3004008B4001F3083
:102966000310B40CB30CB20CB10CFF3E031DB32C18
:102976003408330432043104031DC22CC32CCC2C7E
:102986000030C0000030BF000030BE000030BD0087
:10299600ED2C3D08B1003E08B2003F08B3004008E8
:1029A600B40001300310B10DB20DB30DB40DFF3EEE
:1029B600031DD52C34083304320431040319E42CE6
:1029C600E52CED2CBF30C0008030BF000030BE00CB
:1029D6000030BD004008B0003F08AF003E08AE0022
:1029E6003D08AD00080083160313AF00C201831231
:1029F6000313440883160313C80083120313430802
:102A060083160313C70083120313420883160313A6
:102A1600C60083120313410883160313C500480832
:102A260083120313B8008316031347088312031394
:102A3600B70083160313460883120313B6008316E2
:102A46000313450883120313B5000030BC000030A1
:102A5600BB000030BA000030B9000A128A113D27C7
:102A66000A168A110318382D392D542D831603138F
:102A7600C201C20A4808F3004708F2004608F100FE
:102A86004508F0000A168A15E6250A168A11730803
:102A960083160313C8007208C7007108C6007008C1
:102AA600C50083160313C301C4018312031365080B
:102AB60083160313B30083120313640883160313E8
:102AC600B20042080319682D692D792D4208031DAD
:102AD6006D2D6E2D732D2B30A6000030A700772D9F
:102AE6002D30A6000030A7002608C2004808F300D3
:102AF6004708F2004608F1004508F0000A168A1158
:102B06002B220A168A1170037104031D8B2D8C2D3E
:102B1600CF2D8316031342080319922D932DA32D4F
:102B26004208831603179000FF3083160313B2077B
:102B36000318B30AFF30B3070130C3000030C400E6
:102B46003130F0004308903E0A128A11E1270A1636
:102B56008A11FD3083160313B2070318B30AFF3038
:102B6600B307903083120313A400831603133308AC
:102B760083120313A600831603133208831203136A
:102B8600A500831603132F080A168A15C6270A16E8
:102B96008A110A128A113C2F831603134808F30080
:102BA6004708F2004608F1004508F0000A168A11A7
:102BB6002B220A168A1170087104031DE32DE62DD7
:102BC6000A128A1132288316031342080319EC2DC0
:102BD600ED2DFD2D4208831603179000FF30831656
:102BE6000313B2070318B30AFF30B3070130C3005B
:102BF6000030C4003530F0004308903E0A128A11B6
:102C0600E1270A168A11FD3083160313B20703184B
:102C1600B30AFF30B307903083120313A400831660
:102C26000313330883120313A60083160313320813
:102C360083120313A500831603132F080A168A1599
:102C4600C6270A168A11CC2D7708803983120313FA
:102C5600A4007708F8007807AB00F61F332E342E51
:102C6600352E2B142B080319392E3A2E4A2E2B0AF1
:102C7600031D3E2E3F2E472E0030F7000030F60093
:102C86000030F5000030F400F617F701522E003040
:102C9600F7000030F6000030F5000030F40073084D
:102CA6008039F8007808A4067308F8007807AC00A5
:102CB600F21F5E2E5F2E602E2C142C080319642E34
:102CC600652E752E2C0A031D692E6A2E722E003073
:102CD600F3000030F2000030F1000030F000F2178F
:102CE600F3017D2E0030F3000030F2000030F100D9
:102CF6000030F0007308720471047004031D842E02
:102D0600852E9E2E0030F7000030F6000030F500CC
:102D16000030F4008030F6047F30F7042408F80011
:102D26007808F7047708F3007608F2007508F100D2
:102D36007408F000FF2F2B08031DA22EA32EAC2E25
:102D46000030F3000030F2000030F1000030F000F7
:102D5600FF2F2B08F800F9017908FB002C087802F0
:102D6600FA00031CFB037A087F3EA5007B080318C4
:102D7600013E003EA6007708A3007608A20075086B
:102D8600A1007408A0000030F7000030F600003003
:102D9600F5000030F4000030AA000030A900003031
:102DA600A8000030A700AC01282F2C080319DC2E40
:102DB600DD2EFD2E0130F8000310A00DA10DA20D91
:102DC600A30DF80BDF2E0130F8000310F40DF50DFE
:102DD600F60DF70DF80BE82EAA1FF22EF32EF42EA1
:102DE60074140130F8000310A70DA80DA90DAA0D43
:102DF600F80BF62E73082302031D0B2F720822020E
:102E0600031D0B2F71082102031D0B2F70082002D2
:102E1600031C0E2F0F2F242F2A177008A0027108EB
:102E2600031C710F172F182FA1027208031C720FB3
:102E36001D2F1E2FA2027308031C730F232F242F8E
:102E4600A3020130F8007808AC071A302C02031CE4
:102E56002D2F2E2FD82E23082204210420040319F7
:102E6600352F362F552F2714552F0130F800031014
:102E7600F40DF50DF60DF70DF80B3A2FAA1F442F9A
:102E8600452F462F74140130F8000310A70DA80D26
:102E9600A90DAA0DF80B482FFF30A5070318A60A9F
:102EA600FF30A607F61F582F592F382FAC01AA1F3F
:102EB6005D2F5E2F7A2FFF302705F800FF3028059B
:102EC600F900FF302905FA007F302A05FB007B0850
:102ED6007A04790478040319712F722F752FAC01C7
:102EE600AC0A7A2F741C782F792F7A2F722F2C0820
:102EF60003197E2F7F2FB02F0130F40700300318FF
:102F06000130F507003003180130F60700300318CA
:102F16000130F707771C902F912FB02F7408F80017
:102F26007508F9007608FA007708FB000130FC0006
:102F36007B0DFB0CFA0CF90CF80CFC0B9B2F7B0899
:102F4600F7007A08F6007908F5007808F4000130F1
:102F5600A5070318A60A0030A6072608803AFF0030
:102F660080307F02031DB92FFF302502031CBC2FC2
:102F7600BD2FCB2FFF3083120313A5000030A60010
:102F86000030F7000030F6000030F5000030F400A5
:102F9600831203132608803AFF0080307F02031D48
:102FA600D62F013025020318D92FDA2FE72F8312E7
:102FB6000313A501A6010030F7000030F60000302B
:102FC600F5000030F400A401831203132508AB00BA
:102FD6002B1CEE2FEF2FF12FF617F52F7F30F80071
:102FE6007808F6052B08F8000310780CF70024087B
:0A2FF600F8007808F704952E080093
:103BA80064008001840A0406031900340406D52D34
:103BB800F000831203130C1EE22DE32DDD2D700897
:103BC8009900080073087204710470040319ED2D3C
:103BD800EE2DF02D8030F3060800831603135708E6
:103BE800D2005608D10001300A168A153E260A1658
:103BF8008A150800831203131F14831603131F1258
:103C08009F129F17831203131F083F3980389F00A4
:103C18000800831203131F08C33920389F000A16AF
:103C28008A1583260A168A157108FB007008FA009F
:103C380008008B178B168316031381128111010854
:103C4800F839063881003D308312031381000B11C7
:103C58000800F81B302E312E322E3D2E7709F90040
:103C68007809FA00F90A0319FA0A7908F7007A08B4
:103C7800F800080083120313D600D130D700560885
:103C880083160313CF005730D00000300A168A1568
:103C980066270A168A1508000A168A15FE250A16C6
:103CA8008A150A168A151D260A168A150A168A15ED
:103CB80063260A168A155F2E0A128A11122883169D
:103CC80003131811831603178711831603139A0118
:103CD800203099001812181383120313181383162F
:103CE80003130C128C1683120313981783160313ED
:103CF80098129816831203131812181608008312C4
:103D080003139F141E08F200F3017208F8007308E9
:103D1800F900831603131E08F200F3017808F50072
:103D2800F40172087404F60073087504F700760845
:103D3800F8007708F900FF307805F00003307905BE
:103D4800F1000800803083120313B8063C08F30022
:103D58003B08F2003A08F1003908F0003808F7008B
:103D68003708F6003608F5003508F4000A128A15F7
:103D780055220A168A15730883120313B8007208AD
:103D8800B7007108B6007008B5000800F401F50125
:103D9800701CCF2ED02ED62E7208F4070318F50A01
:103DA8007308F50701300310F20DF30DFF3E031DF4
:103DB800D72E01300310F10CF00CFF3E031DDE2E50
:103DC80070087104031DE92EEA2ECC2E7508F10047
:103DD8007408F0000800F5007008F7007508F60090
:103DE800062F7708840083170008F4000130F300D9
:103DF8007308F70776088400740880000130F30020
:103E08007308F6070130F1020030031CF203F202D6
:103E1800710A031D132F720A031D132F142FF52E79
:103E28000800F800F401F5017008F200F3017208C7
:103E3800F6007308F700781C222F232F292F760805
:103E4800F4070318F50A7708F50701300310F60D93
:103E5800F70DFF3E031D2A2F0310F80C7808031DE9
:103E6800362F372F1F2F7508F1007408F00008004F
:103E780083120313A300A101A201582F2008FA00FE
:103E8800FB017A08F1007B08F2007908F3000A16B2
:103E98008A11AE200A168A15013083120313A1076E
:103EA8000318A20A0030A20721082307FA007A089B
:103EB800840083170008A0002008031D642F652FC5
:103EC800422F080083120313D400831603134F08EC
:103ED80083120313D5007E2F553083160313CD00AC
:103EE8005008CE008312031354080A128A15692059
:103EF8000A168A1583120313550884000A168A11B4
:103F08000A200A168A15003A031D8B2F8C2F702F52
:103F180083160313CF01D0010800643083160313FE
:103F280058065904031D992F9A2FB32F0B110A16FF
:103F38008A150D260A168A157B0883160313DB00DB
:103F48007A08DA005B08D7005A08D6000A168A15DC
:103F5800F1250A168A1583160313D801D9010130F1
:103F6800D8070318D90A0030D907831203135B084E
:103F7800FF005A088A0059088400580E8300FE0E74
:103F88007E0E090083120313A900A61FCC2FCD2F84
:103F9800CF2FA501A601A701A801E72F2030F10026
:103FA8000030F200831203132908F3000A168A115D
:103FB800AE200A168A15013083120313A7070318C7
:103FC800A80A0030A8072808803AFC002608803A8A
:103FD8007C02031DF12F25082702031CF42FF52F5F
:103FE800D22F831203132908F90024080A168A1508
:083FF8003C270A168A15080097
:04400E00E220FF3E6F
:00000001FF
